:100000000C94EC000C9414010C9414010C94140145
:100010000C9414010C9414010C9414010C9414010C
:100020000C9414010C9414010C9470060C940205A9
:100030000C9414010C9414010C9414010C941401EC
:100040000C9414010C9414010C9414010C941401DC
:100050000C9414010C9414010C9414010C942E01B2
:100060000C9414010C9414010C9414010C941401BC
:100070000C9414010C9414010C9414010C941401AC
:100080000C9414010C9414010C9414010C9414019C
:100090000C9414010C9414010C9414010C9414018C
:1000A0000C9414010C9414010C94140131023402C8
:1000B000230227022D0255025502550238023C0246
:1000C000400246024A0255025002000000020009A6
:1000D0000F0000030401000C0000000000000000FD
:1000E00000000000000000000408020110408040F1
:1000F000102040804080080204018040201002014E
:10010000108010204040040404040403040502028B
:1001100002020403020202020606060606060404A0
:100120000202020400000000250028002B002E001F
:10013000310000000000240027002A002D003000BC
:1001400012010002EF020140542333230001010297
:100150000301120100020000004054233323000178
:100160000102030142495244425241494E20544542
:1001700043484E4F4C4F47494553204C4C43004851
:10018000756D6D696E67626972642044756F0004F5
:10019000030904080B000202020100090400000127
:1001A00002020000052400100105240101010424BD
:1001B000020605240600010705810310004009041A
:1001C0000100020A000000070502024000000705C6
:1001D000830240000000E70711241FBECFEFDAE0E2
:1001E000DEBFCDBF11E0A0E0B1E0EEE4F1E102C07E
:1001F00005900D92A432B107D9F721E0A4E2B1E055
:1002000001C01D92A439B207E1F711E0C8EDD1E0B9
:1002100004C02297FE010E94A108C63DD107C9F77C
:100220000E94C6020C94A5080C94000061E08DE0C9
:100230000C94560261E08DE00E948F0268EE73E03C
:1002400080E090E00E949B0160E08DE00E948F02C0
:1002500068EE73E080E090E00C949B011F920F9297
:100260000FB60F9211242F933F938F939F93AF93C9
:10027000BF938091250190912601A0912701B09113
:1002800028013091240123E0230F2D3720F401961B
:10029000A11DB11D05C026E8230F0296A11DB11DA9
:1002A000209324018093250190932601A093270198
:1002B000B09328018091290190912A01A0912B01EE
:1002C000B0912C010196A11DB11D8093290190933D
:1002D0002A01A0932B01B0932C01BF91AF919F9164
:1002E0008F913F912F910F900FBE0F901F901895F7
:1002F0003FB7F8948091290190912A01A0912B0198
:10030000B0912C0126B5A89B05C02F3F19F001968E
:10031000A11DB11D3FBF6627782F892F9A2F620F2D
:10032000711D811D911D42E0660F771F881F991F67
:100330004A95D1F70895CF92DF92EF92FF92CF9333
:10034000DF936B017C010E947801EB01C114D104A1
:10035000E104F10489F00E94D9020E9478016C1B2B
:100360007D0B683E734090F381E0C81AD108E10824
:10037000F108C851DC4FEACFDF91CF91FF90EF90A9
:10038000DF90CF900895789484B5826084BD84B561
:10039000816084BD85B5826085BD85B5816085BD80
:1003A000EEE6F0E0808181608083E1E8F0E0108299
:1003B000808182608083808181608083E0E8F0E0DA
:1003C000808181608083E1E9F0E0808182608083C8
:1003D000808181608083E0E9F0E0808181608083BA
:1003E000E1ECF0E0808184608083808182608083A2
:1003F000808181608083E3ECF0E080818160808394
:10040000E0ECF0E0808182608083E2ECF0E08081CB
:1004100081608083EAE7F0E080818460808380816E
:100420008260808380818160808380818068808316
:10043000089590E0FC013197EF30F105B0F5EA5AEC
:10044000FF4F0C949F08809180008F7703C08091AC
:1004500080008F7D80938000089580918000877F49
:10046000F9CF84B58F7702C084B58F7D84BD0895A0
:10047000809190008F7707C0809190008F7D03C09E
:1004800080919000877F8093900008958091C000B4
:100490008F7703C08091C0008F7D8093C000089546
:1004A0008091C200877F8093C2000895CF93DF932D
:1004B00090E0FC01E851FF4F2491FC01EA5FFE4F00
:1004C0008491882349F190E0880F991FFC01EE5C2C
:1004D000FE4FA591B4918C5D9E4FFC01C591D491C6
:1004E0009FB7611108C0F8948C91209582238C935A
:1004F000888182230AC0623051F4F8948C91322FA3
:10050000309583238C938881822B888304C0F89450
:100510008C91822B8C939FBFDF91CF9108950F9385
:100520001F93CF93DF931F92CDB7DEB7282F30E014
:10053000F901E653FF4F8491F901E851FF4F1491FF
:10054000F901EA5FFE4F04910023C9F0882321F0EE
:1005500069830E9419026981E02FF0E0EE0FFF1F0E
:10056000EC5DFE4FA591B4919FB7F8948C91611109
:1005700003C01095812301C0812B8C939FBF0F90E6
:10058000DF91CF911F910F91089508950E94C301AB
:100590000E94C5028DE291E00E94F3060E941601BE
:1005A000C0E0D0E00E941A012097E1F30E94000011
:1005B000F9CF0895615030F02091F100FC012083C3
:1005C0000196F8CF289884E68093360108954091EB
:1005D00031015091320120912F01309130014217A9
:1005E0005307B4F49091E8009570E1F39091E8001E
:1005F00092FD19C08093F1008091310190913201F8
:1006000001968F739927892B19F48EEF8093E80058
:100610008091310190913201019690933201809343
:10062000310181E0089580E00895CF92DF92EF924A
:10063000FF920F931F93CF93DF931F92CDB7DEB737
:10064000082F162FF42E862F880F8E5F99830E9415
:10065000E70283E00E94E702E02EC02E9981D92EA6
:100660008C2D8E19811798F4F601F7FE02C0849143
:1006700001C080810E94E702082F80E00E94E7020B
:100680008023FFEFCF1ADF0A8111EACF01C081E09A
:100690000F90DF91CF911F910F91FF90EF90DF901E
:1006A000CF9008958091D70081608093D70080EA31
:1006B0008093D80089B5806189BD89B5826089BD84
:1006C00009B400FEFDCF61E070E080E090E00E94A0
:1006D0009B018091D8008F7C80618093D8008091AD
:1006E000E000807F8093E0000895CF93DF931F9216
:1006F000CDB7DEB71982CE0101960E9463070E9432
:100700008B08BE016F5F7F4F0E94040889810F90A4
:10071000DF91CF9108952FB7FC012083F894677083
:100720006093E9000895CF93DF931F92CDB7DEB7B2
:10073000682FCE0101960E948B038091F20099816F
:100740009FBF0F90DF91CF910895FF920F931F935A
:10075000CF93DF9300D0CDB7DEB7F62E8A0190910C
:100760003501992311F057FF03C08FEF9FEF2BC086
:10077000682FCE0101967A830E948B038091F2004C
:1007800090E0A8017A81801791070CF4AC01EF2D5D
:10079000F72FF40E84E6FE1639F028988093360180
:1007A0009091F1009193F7CF4115510521F080917F
:1007B000F200882321F089818FBFCA0104C08BE633
:1007C0008093E800F8CF0F900F90DF91CF911F91A9
:1007D0000F91FF900895CF93DF931F92CDB7DEB7AF
:1007E00041E050E0BE016F5F7F4F0E94A50301977B
:1007F00019F4898190E002C08FEF9FEF0F90DF9195
:10080000CF910895CF93DF931F92CDB7DEB7682FB6
:10081000CE0101960E948B039091E800892F80728F
:1008200095FF04C09091F20080E4891B99819FBFDD
:100830000F90DF91CF9108956F927F928F929F9248
:10084000AF92BF92CF92DF92EF92FF920F931F93DE
:10085000CF93DF931F92CDB7DEB7782E7B01C42EE6
:10086000B52E80913501882369F0042F152F8AEF6A
:10087000D82E872D8072982E9AE3A92E872D80740A
:10088000882E11C08FEF9FEF57C0872D0E94020462
:10089000682E81110CC0DA94A9F361E070E080E069
:1008A00090E00E949B010115110579F73BC0282FAC
:1008B00030E0021713070CF4602E672DCE0101966D
:1008C0000E948B038091E80085FF29C0262D30E02F
:1008D000021B130B992039F06A948FEF6816B1F060
:1008E0001092F100F9CFF701862D77FE07C08150F5
:1008F00058F094919093F1003196F9CF815020F007
:1009000091919093F100FACFE20EF31E8091E800EE
:1009100085FF0FC00115110511F481100AC08981EE
:100920008FBFC1CF5D9884E6809337018C2D9B2DBE
:1009300003C0A092E800F3CF0F90DF91CF911F91F9
:100940000F91FF90EF90DF90CF90BF90AF909F906E
:100950008F907F906F9008951092E900109232016D
:10096000109231019093300180932F010895CF921E
:10097000DF92FF920F931F93CF93DF9300D0CDB7F9
:10098000DEB7F82E8A016B0101151105B1F0F601F1
:10099000F7FE02C0849101C0808149835A830E947E
:1009A000E70201501109FFEFCF1ADF0A49815A818E
:1009B0008111EACF8FEF9FEF01C0CA010F900F9016
:1009C000DF91CF911F910F91FF90DF90CF9008950D
:1009D0001F93CF93DF931F92CDB7DEB7162F2091D1
:1009E000E80022FFFCCF612F79830E94DA028BEFAF
:1009F0008093E800812F7981972F0F90DF91CF911D
:100A00001F9108951F920F920FB60F921124DF923B
:100A1000EF92FF920F931F932F933F934F935F9308
:100A20006F937F938F939F93AF93BF93EF93FF93B6
:100A3000CF93DF93CDB7DEB76C97DEBFCDBF1092FB
:100A4000E9008091E80083FF23C168E0CE0145966C
:100A50000E94DA0282EF8093E8003D8937FF05C0EB
:100A60008091E80080FFFCCF03C08EEF8093E80008
:100A7000832F807609F0F0C02E894F89D88C211100
:100A80000CC0303829F4809134018093F10002C009
:100A90001092F1001092F100F4C0842F90E09D2993
:100AA000213049F43111EDC0019709F0EAC080917D
:100AB00034018D7F0AC0233059F43111E2C001970F
:100AC00009F0DFC080913401826080933401D9C085
:100AD000253041F48091E80080FFFCCF40684093CE
:100AE000E300CFC0263009F08DC0EB8CFC8C22E0F7
:100AF000D2122CC080E090E00E94AC040E947503EA
:100B000099E08E010F5F1F4FF801292F11922A954E
:100B1000E9F79983DA8291E09E8390EA98879AEFC9
:100B200099872091310130913201275F3F4F3C83FB
:100B30002B838D83C7010E94AC0449E050E0B801CB
:100B400080E00E94B7040E9475039BC0C7010E9409
:100B5000AC040E948B08BE016B5E7F4F0E942D0883
:100B6000009719F00CF08DC090C081E0D8120EC033
:100B70008B8D9C8D089719F481E080932E018091D4
:100B80002E0181112FC062E571E031C0E3E0DE1279
:100B90007CC08F89882349F1823029F440E86FE0D6
:100BA0008FE791E01CC0813029F440E86AE184E6D7
:100BB00091E015C0833009F068C00E948B088E0157
:100BC0000F5F1F4FB8010E944C08F80101900020F0
:100BD000E9F73197E01BF10B40E06E2FC8010E944E
:100BE00015034DC060E471E002C06FE871E061156B
:100BF000710509F44AC0FB01449150E080E80E946D
:100C0000B7043FC0273009F440C0283021F481E008
:100C10008093F10036C02930A1F53370B1F5E1E0E1
:100C2000F1E081E021E036E39081992361F0809347
:100C3000E9002093EB0091919093EC003093ED004C
:100C40008F5F873089F78EE78093EA001092EA0081
:100C50008F898093350115C08B8D9C8D0E94AC04CB
:100C6000898D811105C0CE0145960E946E0707C08F
:100C70000E948B08BE016B5E7F4F0E946B08882329
:100C800021F08EEF8093E80003C081E28093EB00B7
:100C90006C960FB6F894DEBF0FBECDBFDF91CF913B
:100CA000FF91EF91BF91AF919F918F917F916F9144
:100CB0005F914F913F912F911F910F91FF90EF9076
:100CC000DF900F900FBE0F901F9018958093E90052
:100CD0008091F200882319F08AE38093E800089558
:100CE0001F920F920FB60F9211242F933F934F93A1
:100CF0005F936F937F938F939F93AF93BF93CF93A4
:100D0000EF93FF93C091E1008091E100837F809396
:100D1000E1008093E100C3FF0FC01092E90081E081
:100D20008093EB001092EC0082E38093ED00109230
:100D3000350188E08093F000C2FF19C083E00E9473
:100D4000660680913701882339F080913701815000
:100D500080933701882389F180913601882339F007
:100D600080913601815080933601882341F1C4FF80
:100D700010C08091E2008E7E81608093E2008091BD
:100D8000E1008F7E8093E100809133018E7E80614F
:100D900011C0C0FF16C08091E2008E7E80618093FA
:100DA000E2008091E1008E7E8093E100809133012A
:100DB0008E7E81608093330104C05D9ACDCF289AE6
:100DC000D6CFFF91EF91CF91BF91AF919F918F912E
:100DD0007F916F915F914F913F912F910F900FBE37
:100DE0000F901F90189510923501109234011092B7
:100DF00033010E945203E1EEF0E080818E7E808319
:100E00008DE08093E200559A209A0895CF93DF9366
:100E10001F92CDB7DEB76983DC01ED91FC910280B2
:100E2000F381E02D41E050E0BE016F5F7F4F0995F7
:100E30000F90DF91CF910895CF93DF93EC018C85D4
:100E40009D8597FF05C082E00E94EB039D878C87FC
:100E50008C859D85DF91CF91089583E00C94660683
:100E6000FC018485958597FD06C082E00E9493036E
:100E700090E00196089582E00E94930390E0089527
:100E8000FC018485958597FD05C02FEF3FEF3587E1
:100E90002487089582E00C94EB03CF93DF93EC0159
:100EA00080911201882331F083E00E941C041816FF
:100EB000190634F081E090E09B838A8380E090E023
:100EC000DF91CF910895FC0120812E5F208342E4C1
:100ED00050E063E971E080E80C94B704FC012181E3
:100EE0008081813A59F4213209F05CC047E050E03A
:100EF0006BE071E080E00E94B70467C0813209F0C6
:100F000051C0233289F4838190E0982F8827328161
:100F1000832BA0E0B0E08093070190930801A09399
:100F20000901B0930A010FC0203239F467E070E084
:100F30008BE091E00E94E8040AC0223221F4828111
:100F40008093120104C02D7F203209F03EC08091B1
:100F50000B0190910C01A0910D01B0910E01803B0D
:100F60009440A105B10501F58091120180FD1CC0DE
:100F700080910008909101089093FF0A8093FE0AE7
:100F800087E797E790930108809300082BE088E1BA
:100F900090E00FB6F894A895809360000FBE209360
:100FA000600013C080E0089588E10FB6F894809344
:100FB0006000109260000FBEA8958091FE0A90918B
:100FC000FF0A909301088093000881E00895109231
:100FD0003B0110923A0188EE93E0A0E0B0E08093EC
:100FE0003C0190933D01A0933E01B0933F0187E106
:100FF00091E090933901809338018FEF9FEF9093A8
:101000004501809344010895EF92FF920F931F933F
:10101000CF93DF937B01FC01C281D38100E010E01C
:10102000209781F0E881F9810280F381E02DB701FA
:10103000CE01099597FD08C0080F191F0884D985AE
:10104000C02DEECFC80102C08FEF9FEFDF91CF918F
:101050001F910F91FF90EF9008950F931F93CF93DF
:10106000DF938B01FC01C281D381209771F0E8816D
:10107000F9810480F581E02DB801CE010995009732
:1010800031F40884D985C02DF0CF80E090E0DF9165
:10109000CF911F910F9108950F931F93CF93DF93DB
:1010A0008B01FC01C281D381209771F0E881F98125
:1010B0000680F781E02DB801CE010995080F111DBA
:1010C0000884D985C02DF0CFF8011082DF91CF912F
:1010D0001F910F9108950F931F93CF93DF938B016F
:1010E000FC01C281D381209771F0E881F9810190E0
:1010F000F081E02DB801CE010995811106C0088468
:10110000D985C02DF0CF80E001C081E0DF91CF9183
:101110001F910F91089580918C0181110DC082E083
:101120008093880184E08093890110928B01109252
:101130008A0181E080938C0188E891E00895EE0FA8
:0E114000FF1F0590F491E02D0994F894FFCF65
:10114E0000C18081000000FFFFFFFF00E1000000F2
:10115E000000000000000006074D07300740071C86
:04116E00072D070042
:00000001FF
